{
  "contractName": "NFTVogue",
  "abi": [
    {
      "inputs": [],
      "stateMutability": "nonpayable",
      "type": "constructor"
    },
    {
      "anonymous": false,
      "inputs": [
        {
          "indexed": true,
          "internalType": "address",
          "name": "owner",
          "type": "address"
        },
        {
          "indexed": true,
          "internalType": "address",
          "name": "approved",
          "type": "address"
        },
        {
          "indexed": true,
          "internalType": "uint256",
          "name": "tokenId",
          "type": "uint256"
        }
      ],
      "name": "Approval",
      "type": "event"
    },
    {
      "anonymous": false,
      "inputs": [
        {
          "indexed": true,
          "internalType": "address",
          "name": "owner",
          "type": "address"
        },
        {
          "indexed": true,
          "internalType": "address",
          "name": "operator",
          "type": "address"
        },
        {
          "indexed": false,
          "internalType": "bool",
          "name": "approved",
          "type": "bool"
        }
      ],
      "name": "ApprovalForAll",
      "type": "event"
    },
    {
      "anonymous": false,
      "inputs": [
        {
          "indexed": false,
          "internalType": "uint256",
          "name": "_fromTokenId",
          "type": "uint256"
        },
        {
          "indexed": false,
          "internalType": "uint256",
          "name": "_toTokenId",
          "type": "uint256"
        }
      ],
      "name": "BatchMetadataUpdate",
      "type": "event"
    },
    {
      "anonymous": false,
      "inputs": [
        {
          "indexed": false,
          "internalType": "uint256",
          "name": "_tokenId",
          "type": "uint256"
        }
      ],
      "name": "MetadataUpdate",
      "type": "event"
    },
    {
      "anonymous": false,
      "inputs": [
        {
          "indexed": true,
          "internalType": "uint256",
          "name": "tokenId",
          "type": "uint256"
        },
        {
          "indexed": true,
          "internalType": "address",
          "name": "buyer",
          "type": "address"
        },
        {
          "indexed": true,
          "internalType": "address",
          "name": "seller",
          "type": "address"
        },
        {
          "indexed": false,
          "internalType": "uint256",
          "name": "price",
          "type": "uint256"
        }
      ],
      "name": "NFTBought",
      "type": "event"
    },
    {
      "anonymous": false,
      "inputs": [
        {
          "indexed": true,
          "internalType": "uint256",
          "name": "tokenId",
          "type": "uint256"
        },
        {
          "indexed": true,
          "internalType": "address",
          "name": "seller",
          "type": "address"
        },
        {
          "indexed": false,
          "internalType": "uint256",
          "name": "price",
          "type": "uint256"
        }
      ],
      "name": "NFTListed",
      "type": "event"
    },
    {
      "anonymous": false,
      "inputs": [
        {
          "indexed": true,
          "internalType": "uint256",
          "name": "tokenId",
          "type": "uint256"
        },
        {
          "indexed": true,
          "internalType": "address",
          "name": "seller",
          "type": "address"
        }
      ],
      "name": "NFTListingCancelled",
      "type": "event"
    },
    {
      "anonymous": false,
      "inputs": [
        {
          "indexed": true,
          "internalType": "address",
          "name": "previousOwner",
          "type": "address"
        },
        {
          "indexed": true,
          "internalType": "address",
          "name": "newOwner",
          "type": "address"
        }
      ],
      "name": "OwnershipTransferred",
      "type": "event"
    },
    {
      "anonymous": false,
      "inputs": [
        {
          "indexed": true,
          "internalType": "address",
          "name": "from",
          "type": "address"
        },
        {
          "indexed": true,
          "internalType": "address",
          "name": "to",
          "type": "address"
        },
        {
          "indexed": true,
          "internalType": "uint256",
          "name": "tokenId",
          "type": "uint256"
        }
      ],
      "name": "Transfer",
      "type": "event"
    },
    {
      "inputs": [
        {
          "internalType": "address",
          "name": "to",
          "type": "address"
        },
        {
          "internalType": "uint256",
          "name": "tokenId",
          "type": "uint256"
        }
      ],
      "name": "approve",
      "outputs": [],
      "stateMutability": "nonpayable",
      "type": "function"
    },
    {
      "inputs": [
        {
          "internalType": "address",
          "name": "owner",
          "type": "address"
        }
      ],
      "name": "balanceOf",
      "outputs": [
        {
          "internalType": "uint256",
          "name": "",
          "type": "uint256"
        }
      ],
      "stateMutability": "view",
      "type": "function",
      "constant": true
    },
    {
      "inputs": [
        {
          "internalType": "uint256",
          "name": "tokenId",
          "type": "uint256"
        }
      ],
      "name": "getApproved",
      "outputs": [
        {
          "internalType": "address",
          "name": "",
          "type": "address"
        }
      ],
      "stateMutability": "view",
      "type": "function",
      "constant": true
    },
    {
      "inputs": [
        {
          "internalType": "address",
          "name": "owner",
          "type": "address"
        },
        {
          "internalType": "address",
          "name": "operator",
          "type": "address"
        }
      ],
      "name": "isApprovedForAll",
      "outputs": [
        {
          "internalType": "bool",
          "name": "",
          "type": "bool"
        }
      ],
      "stateMutability": "view",
      "type": "function",
      "constant": true
    },
    {
      "inputs": [],
      "name": "marketOwner",
      "outputs": [
        {
          "internalType": "address",
          "name": "",
          "type": "address"
        }
      ],
      "stateMutability": "view",
      "type": "function",
      "constant": true
    },
    {
      "inputs": [],
      "name": "name",
      "outputs": [
        {
          "internalType": "string",
          "name": "",
          "type": "string"
        }
      ],
      "stateMutability": "view",
      "type": "function",
      "constant": true
    },
    {
      "inputs": [
        {
          "internalType": "uint256",
          "name": "",
          "type": "uint256"
        }
      ],
      "name": "nftDetails",
      "outputs": [
        {
          "internalType": "bool",
          "name": "isListed",
          "type": "bool"
        },
        {
          "internalType": "uint256",
          "name": "price",
          "type": "uint256"
        },
        {
          "internalType": "address",
          "name": "lastOwner",
          "type": "address"
        }
      ],
      "stateMutability": "view",
      "type": "function",
      "constant": true
    },
    {
      "inputs": [
        {
          "internalType": "address",
          "name": "",
          "type": "address"
        },
        {
          "internalType": "uint256",
          "name": "",
          "type": "uint256"
        }
      ],
      "name": "nftsListedByUser",
      "outputs": [
        {
          "internalType": "uint256",
          "name": "",
          "type": "uint256"
        }
      ],
      "stateMutability": "view",
      "type": "function",
      "constant": true
    },
    {
      "inputs": [
        {
          "internalType": "uint256",
          "name": "",
          "type": "uint256"
        }
      ],
      "name": "nftsListedInMarket",
      "outputs": [
        {
          "internalType": "uint256",
          "name": "",
          "type": "uint256"
        }
      ],
      "stateMutability": "view",
      "type": "function",
      "constant": true
    },
    {
      "inputs": [],
      "name": "owner",
      "outputs": [
        {
          "internalType": "address",
          "name": "",
          "type": "address"
        }
      ],
      "stateMutability": "view",
      "type": "function",
      "constant": true
    },
    {
      "inputs": [
        {
          "internalType": "uint256",
          "name": "tokenId",
          "type": "uint256"
        }
      ],
      "name": "ownerOf",
      "outputs": [
        {
          "internalType": "address",
          "name": "",
          "type": "address"
        }
      ],
      "stateMutability": "view",
      "type": "function",
      "constant": true
    },
    {
      "inputs": [],
      "name": "renounceOwnership",
      "outputs": [],
      "stateMutability": "nonpayable",
      "type": "function"
    },
    {
      "inputs": [
        {
          "internalType": "address",
          "name": "from",
          "type": "address"
        },
        {
          "internalType": "address",
          "name": "to",
          "type": "address"
        },
        {
          "internalType": "uint256",
          "name": "tokenId",
          "type": "uint256"
        }
      ],
      "name": "safeTransferFrom",
      "outputs": [],
      "stateMutability": "nonpayable",
      "type": "function"
    },
    {
      "inputs": [
        {
          "internalType": "address",
          "name": "from",
          "type": "address"
        },
        {
          "internalType": "address",
          "name": "to",
          "type": "address"
        },
        {
          "internalType": "uint256",
          "name": "tokenId",
          "type": "uint256"
        },
        {
          "internalType": "bytes",
          "name": "data",
          "type": "bytes"
        }
      ],
      "name": "safeTransferFrom",
      "outputs": [],
      "stateMutability": "nonpayable",
      "type": "function"
    },
    {
      "inputs": [
        {
          "internalType": "address",
          "name": "operator",
          "type": "address"
        },
        {
          "internalType": "bool",
          "name": "approved",
          "type": "bool"
        }
      ],
      "name": "setApprovalForAll",
      "outputs": [],
      "stateMutability": "nonpayable",
      "type": "function"
    },
    {
      "inputs": [],
      "name": "symbol",
      "outputs": [
        {
          "internalType": "string",
          "name": "",
          "type": "string"
        }
      ],
      "stateMutability": "view",
      "type": "function",
      "constant": true
    },
    {
      "inputs": [
        {
          "internalType": "uint256",
          "name": "index",
          "type": "uint256"
        }
      ],
      "name": "tokenByIndex",
      "outputs": [
        {
          "internalType": "uint256",
          "name": "",
          "type": "uint256"
        }
      ],
      "stateMutability": "view",
      "type": "function",
      "constant": true
    },
    {
      "inputs": [
        {
          "internalType": "address",
          "name": "owner",
          "type": "address"
        },
        {
          "internalType": "uint256",
          "name": "index",
          "type": "uint256"
        }
      ],
      "name": "tokenOfOwnerByIndex",
      "outputs": [
        {
          "internalType": "uint256",
          "name": "",
          "type": "uint256"
        }
      ],
      "stateMutability": "view",
      "type": "function",
      "constant": true
    },
    {
      "inputs": [],
      "name": "totalSupply",
      "outputs": [
        {
          "internalType": "uint256",
          "name": "",
          "type": "uint256"
        }
      ],
      "stateMutability": "view",
      "type": "function",
      "constant": true
    },
    {
      "inputs": [
        {
          "internalType": "address",
          "name": "from",
          "type": "address"
        },
        {
          "internalType": "address",
          "name": "to",
          "type": "address"
        },
        {
          "internalType": "uint256",
          "name": "tokenId",
          "type": "uint256"
        }
      ],
      "name": "transferFrom",
      "outputs": [],
      "stateMutability": "nonpayable",
      "type": "function"
    },
    {
      "inputs": [
        {
          "internalType": "address",
          "name": "newOwner",
          "type": "address"
        }
      ],
      "name": "transferOwnership",
      "outputs": [],
      "stateMutability": "nonpayable",
      "type": "function"
    },
    {
      "inputs": [
        {
          "internalType": "address",
          "name": "to",
          "type": "address"
        },
        {
          "internalType": "string",
          "name": "uri",
          "type": "string"
        }
      ],
      "name": "safeMint",
      "outputs": [],
      "stateMutability": "nonpayable",
      "type": "function"
    },
    {
      "inputs": [
        {
          "internalType": "uint256",
          "name": "tokenId",
          "type": "uint256"
        },
        {
          "internalType": "uint256",
          "name": "price",
          "type": "uint256"
        }
      ],
      "name": "listNFT",
      "outputs": [],
      "stateMutability": "nonpayable",
      "type": "function"
    },
    {
      "inputs": [
        {
          "internalType": "uint256",
          "name": "tokenId",
          "type": "uint256"
        }
      ],
      "name": "purchase",
      "outputs": [],
      "stateMutability": "payable",
      "type": "function",
      "payable": true
    },
    {
      "inputs": [
        {
          "internalType": "uint256",
          "name": "tokenId",
          "type": "uint256"
        }
      ],
      "name": "cancelListing",
      "outputs": [],
      "stateMutability": "nonpayable",
      "type": "function"
    },
    {
      "inputs": [
        {
          "internalType": "address",
          "name": "owner",
          "type": "address"
        }
      ],
      "name": "getNFTsOfOwner",
      "outputs": [
        {
          "internalType": "uint256[]",
          "name": "",
          "type": "uint256[]"
        }
      ],
      "stateMutability": "view",
      "type": "function",
      "constant": true
    },
    {
      "inputs": [
        {
          "internalType": "uint256",
          "name": "tokenId",
          "type": "uint256"
        }
      ],
      "name": "getSalesHistory",
      "outputs": [
        {
          "components": [
            {
              "internalType": "uint256",
              "name": "tokenId",
              "type": "uint256"
            },
            {
              "internalType": "address",
              "name": "seller",
              "type": "address"
            },
            {
              "internalType": "address",
              "name": "buyer",
              "type": "address"
            },
            {
              "internalType": "uint256",
              "name": "price",
              "type": "uint256"
            },
            {
              "internalType": "uint256",
              "name": "timestamp",
              "type": "uint256"
            }
          ],
          "internalType": "struct NFTVogue.SaleDetail[]",
          "name": "",
          "type": "tuple[]"
        }
      ],
      "stateMutability": "view",
      "type": "function",
      "constant": true
    },
    {
      "inputs": [],
      "name": "getNFTsListedForSale",
      "outputs": [
        {
          "internalType": "uint256[]",
          "name": "",
          "type": "uint256[]"
        }
      ],
      "stateMutability": "view",
      "type": "function",
      "constant": true
    },
    {
      "inputs": [
        {
          "internalType": "address",
          "name": "user",
          "type": "address"
        }
      ],
      "name": "getNFTsListedByUser",
      "outputs": [
        {
          "internalType": "uint256[]",
          "name": "",
          "type": "uint256[]"
        }
      ],
      "stateMutability": "view",
      "type": "function",
      "constant": true
    },
    {
      "inputs": [
        {
          "internalType": "uint256",
          "name": "tokenId",
          "type": "uint256"
        }
      ],
      "name": "tokenURI",
      "outputs": [
        {
          "internalType": "string",
          "name": "",
          "type": "string"
        }
      ],
      "stateMutability": "view",
      "type": "function",
      "constant": true
    },
    {
      "inputs": [
        {
          "internalType": "bytes4",
          "name": "interfaceId",
          "type": "bytes4"
        }
      ],
      "name": "supportsInterface",
      "outputs": [
        {
          "internalType": "bool",
          "name": "",
          "type": "bool"
        }
      ],
      "stateMutability": "view",
      "type": "function",
      "constant": true
    }
  ],
  "bytecode": "0x60806040523480156200001157600080fd5b506040518060400160405280600981526020017f4e465420566f67756500000000000000000000000000000000000000000000008152506040518060400160405280600481526020017f4e46545600000000000000000000000000000000000000000000000000000000815250816000908051906020019062000096929190620001d3565b508060019080519060200190620000af929190620001d3565b505050620000d2620000c6620000ef60201b60201c565b620000f760201b60201c565b620000e96010620001bd60201b6200209d1760201c565b620002e7565b600033905090565b6000600b60009054906101000a900473ffffffffffffffffffffffffffffffffffffffff16905081600b60006101000a81548173ffffffffffffffffffffffffffffffffffffffff021916908373ffffffffffffffffffffffffffffffffffffffff1602179055508173ffffffffffffffffffffffffffffffffffffffff168173ffffffffffffffffffffffffffffffffffffffff167f8be0079c531659141344cd1fd0a4f28419497f9722a3daafe3b4186f6b6457e060405160405180910390a35050565b6001816000016000828254019250508190555050565b828054620001e190620002b2565b90600052602060002090601f01602090048101928262000205576000855562000251565b82601f106200022057805160ff191683800117855562000251565b8280016001018555821562000251579182015b828111156200025057825182559160200191906001019062000233565b5b50905062000260919062000264565b5090565b5b808211156200027f57600081600090555060010162000265565b5090565b7f4e487b7100000000000000000000000000000000000000000000000000000000600052602260045260246000fd5b60006002820490506001821680620002cb57607f821691505b602082108103620002e157620002e062000283565b5b50919050565b61507480620002f76000396000f3fe6080604052600436106101d85760003560e01c80637d4cd84711610102578063c87b56dd11610095578063efef39a111610064578063efef39a11461071c578063f04bb9d814610738578063f2fde38b14610775578063f6ccc1dc1461079e576101d8565b8063c87b56dd1461063c578063d204c45e14610679578063e967dd5d146106a2578063e985e9c5146106df576101d8565b806395d89b41116100d157806395d89b4114610582578063a22cb465146105ad578063b874e005146105d6578063b88d4fde14610613576101d8565b80637d4cd847146104b2578063842f6ccf146104f15780638da5cb5b1461052e57806394383f1414610559576101d8565b8063305a67a81161017a5780635c7112fa116101495780635c7112fa146103f65780636352211e1461042157806370a082311461045e578063715018a61461049b576101d8565b8063305a67a81461033c57806342842e0e1461036557806347d90b5c1461038e5780634f6ccce7146103b9576101d8565b8063095ea7b3116101b6578063095ea7b31461028257806318160ddd146102ab57806323b872dd146102d65780632f745c59146102ff576101d8565b806301ffc9a7146101dd57806306fdde031461021a578063081812fc14610245575b600080fd5b3480156101e957600080fd5b5061020460048036038101906101ff919061393a565b6107db565b6040516102119190613982565b60405180910390f35b34801561022657600080fd5b5061022f6107ed565b60405161023c9190613a36565b60405180910390f35b34801561025157600080fd5b5061026c60048036038101906102679190613a8e565b61087f565b6040516102799190613afc565b60405180910390f35b34801561028e57600080fd5b506102a960048036038101906102a49190613b43565b6108c5565b005b3480156102b757600080fd5b506102c06109dc565b6040516102cd9190613b92565b60405180910390f35b3480156102e257600080fd5b506102fd60048036038101906102f89190613bad565b6109e9565b005b34801561030b57600080fd5b5061032660048036038101906103219190613b43565b610a49565b6040516103339190613b92565b60405180910390f35b34801561034857600080fd5b50610363600480360381019061035e9190613a8e565b610aee565b005b34801561037157600080fd5b5061038c60048036038101906103879190613bad565b610f3d565b005b34801561039a57600080fd5b506103a3610f5d565b6040516103b09190613afc565b60405180910390f35b3480156103c557600080fd5b506103e060048036038101906103db9190613a8e565b610f83565b6040516103ed9190613b92565b60405180910390f35b34801561040257600080fd5b5061040b610ff4565b6040516104189190613cbe565b60405180910390f35b34801561042d57600080fd5b5061044860048036038101906104439190613a8e565b61104c565b6040516104559190613afc565b60405180910390f35b34801561046a57600080fd5b5061048560048036038101906104809190613ce0565b6110d2565b6040516104929190613b92565b60405180910390f35b3480156104a757600080fd5b506104b0611189565b005b3480156104be57600080fd5b506104d960048036038101906104d49190613a8e565b61119d565b6040516104e893929190613d0d565b60405180910390f35b3480156104fd57600080fd5b5061051860048036038101906105139190613a8e565b6111f4565b6040516105259190613e6a565b60405180910390f35b34801561053a57600080fd5b50610543611333565b6040516105509190613afc565b60405180910390f35b34801561056557600080fd5b50610580600480360381019061057b9190613e8c565b61135d565b005b34801561058e57600080fd5b50610597611606565b6040516105a49190613a36565b60405180910390f35b3480156105b957600080fd5b506105d460048036038101906105cf9190613ef8565b611698565b005b3480156105e257600080fd5b506105fd60048036038101906105f89190613a8e565b6116ae565b60405161060a9190613b92565b60405180910390f35b34801561061f57600080fd5b5061063a6004803603810190610635919061406d565b6116d2565b005b34801561064857600080fd5b50610663600480360381019061065e9190613a8e565b611734565b6040516106709190613a36565b60405180910390f35b34801561068557600080fd5b506106a0600480360381019061069b9190614191565b611746565b005b3480156106ae57600080fd5b506106c960048036038101906106c49190613ce0565b611777565b6040516106d69190613cbe565b60405180910390f35b3480156106eb57600080fd5b50610706600480360381019061070191906141ed565b611825565b6040516107139190613982565b60405180910390f35b61073660048036038101906107319190613a8e565b6118b9565b005b34801561074457600080fd5b5061075f600480360381019061075a9190613b43565b611f52565b60405161076c9190613b92565b60405180910390f35b34801561078157600080fd5b5061079c60048036038101906107979190613ce0565b611f83565b005b3480156107aa57600080fd5b506107c560048036038101906107c09190613ce0565b612006565b6040516107d29190613cbe565b60405180910390f35b60006107e6826120b3565b9050919050565b6060600080546107fc9061425c565b80601f01602080910402602001604051908101604052809291908181526020018280546108289061425c565b80156108755780601f1061084a57610100808354040283529160200191610875565b820191906000526020600020905b81548152906001019060200180831161085857829003601f168201915b5050505050905090565b600061088a82612114565b6004600083815260200190815260200160002060009054906101000a900473ffffffffffffffffffffffffffffffffffffffff169050919050565b60006108d08261104c565b90508073ffffffffffffffffffffffffffffffffffffffff168373ffffffffffffffffffffffffffffffffffffffff1603610940576040517f08c379a0000000000000000000000000000000000000000000000000000000008152600401610937906142ff565b60405180910390fd5b8073ffffffffffffffffffffffffffffffffffffffff1661095f61215f565b73ffffffffffffffffffffffffffffffffffffffff16148061098e575061098d8161098861215f565b611825565b5b6109cd576040517f08c379a00000000000000000000000000000000000000000000000000000000081526004016109c490614391565b60405180910390fd5b6109d78383612167565b505050565b6000600880549050905090565b6109fa6109f461215f565b82612220565b610a39576040517f08c379a0000000000000000000000000000000000000000000000000000000008152600401610a3090614423565b60405180910390fd5b610a448383836122b5565b505050565b6000610a54836110d2565b8210610a95576040517f08c379a0000000000000000000000000000000000000000000000000000000008152600401610a8c906144b5565b60405180910390fd5b600660008473ffffffffffffffffffffffffffffffffffffffff1673ffffffffffffffffffffffffffffffffffffffff168152602001908152602001600020600083815260200190815260200160002054905092915050565b6000600d600083815260200190815260200160002060020160009054906101000a900473ffffffffffffffffffffffffffffffffffffffff169050600d600083815260200190815260200160002060000160009054906101000a900460ff16610b8c576040517f08c379a0000000000000000000000000000000000000000000000000000000008152600401610b8390614521565b60405180910390fd5b3373ffffffffffffffffffffffffffffffffffffffff168173ffffffffffffffffffffffffffffffffffffffff1614610bfa576040517f08c379a0000000000000000000000000000000000000000000000000000000008152600401610bf19061458d565b60405180910390fd5b6000600d600084815260200190815260200160002060000160006101000a81548160ff021916908315150217905550610c343082846122b5565b60005b600e60008373ffffffffffffffffffffffffffffffffffffffff1673ffffffffffffffffffffffffffffffffffffffff16815260200190815260200160002080549050811015610e2c5782600e60008473ffffffffffffffffffffffffffffffffffffffff1673ffffffffffffffffffffffffffffffffffffffff1681526020019081526020016000208281548110610cd357610cd26145ad565b5b906000526020600020015403610e1957600f6001600e60008573ffffffffffffffffffffffffffffffffffffffff1673ffffffffffffffffffffffffffffffffffffffff16815260200190815260200160002080549050610d34919061460b565b81548110610d4557610d446145ad565b5b9060005260206000200154600e60008473ffffffffffffffffffffffffffffffffffffffff1673ffffffffffffffffffffffffffffffffffffffff1681526020019081526020016000208281548110610da157610da06145ad565b5b9060005260206000200181905550600e60008373ffffffffffffffffffffffffffffffffffffffff1673ffffffffffffffffffffffffffffffffffffffff168152602001908152602001600020805480610dfe57610dfd61463f565b5b60019003818190600052602060002001600090559055610e2c565b8080610e249061466e565b915050610c37565b5060005b600f80549050811015610ef45782600f8281548110610e5257610e516145ad565b5b906000526020600020015403610ee157600f6001600f80549050610e76919061460b565b81548110610e8757610e866145ad565b5b9060005260206000200154600f8281548110610ea657610ea56145ad565b5b9060005260206000200181905550600f805480610ec657610ec561463f565b5b60019003818190600052602060002001600090559055610ef4565b8080610eec9061466e565b915050610e30565b503373ffffffffffffffffffffffffffffffffffffffff16827f60d684fb8e0e3f4ae9b51912760d57e90172fe4eac3d2faed8f0b97fa6030cdb60405160405180910390a35050565b610f58838383604051806020016040528060008152506116d2565b505050565b600c60009054906101000a900473ffffffffffffffffffffffffffffffffffffffff1681565b6000610f8d6109dc565b8210610fce576040517f08c379a0000000000000000000000000000000000000000000000000000000008152600401610fc590614728565b60405180910390fd5b60088281548110610fe257610fe16145ad565b5b90600052602060002001549050919050565b6060600f80548060200260200160405190810160405280929190818152602001828054801561104257602002820191906000526020600020905b81548152602001906001019080831161102e575b5050505050905090565b600080611058836125ae565b9050600073ffffffffffffffffffffffffffffffffffffffff168173ffffffffffffffffffffffffffffffffffffffff16036110c9576040517f08c379a00000000000000000000000000000000000000000000000000000000081526004016110c090614794565b60405180910390fd5b80915050919050565b60008073ffffffffffffffffffffffffffffffffffffffff168273ffffffffffffffffffffffffffffffffffffffff1603611142576040517f08c379a000000000000000000000000000000000000000000000000000000000815260040161113990614826565b60405180910390fd5b600360008373ffffffffffffffffffffffffffffffffffffffff1673ffffffffffffffffffffffffffffffffffffffff168152602001908152602001600020549050919050565b6111916125eb565b61119b6000612669565b565b600d6020528060005260406000206000915090508060000160009054906101000a900460ff16908060010154908060020160009054906101000a900473ffffffffffffffffffffffffffffffffffffffff16905083565b6060600d6000838152602001908152602001600020600301805480602002602001604051908101604052809291908181526020016000905b8282101561132857838290600052602060002090600502016040518060a0016040529081600082015481526020016001820160009054906101000a900473ffffffffffffffffffffffffffffffffffffffff1673ffffffffffffffffffffffffffffffffffffffff1673ffffffffffffffffffffffffffffffffffffffff1681526020016002820160009054906101000a900473ffffffffffffffffffffffffffffffffffffffff1673ffffffffffffffffffffffffffffffffffffffff1673ffffffffffffffffffffffffffffffffffffffff168152602001600382015481526020016004820154815250508152602001906001019061122c565b505050509050919050565b6000600b60009054906101000a900473ffffffffffffffffffffffffffffffffffffffff16905090565b600d600083815260200190815260200160002060000160009054906101000a900460ff16156113c1576040517f08c379a00000000000000000000000000000000000000000000000000000000081526004016113b890614892565b60405180910390fd5b3373ffffffffffffffffffffffffffffffffffffffff166113e18361104c565b73ffffffffffffffffffffffffffffffffffffffff1614611437576040517f08c379a000000000000000000000000000000000000000000000000000000000815260040161142e9061458d565b60405180910390fd5b6000811161147a576040517f08c379a000000000000000000000000000000000000000000000000000000000815260040161147190614924565b60405180910390fd5b6001600d600084815260200190815260200160002060000160006101000a81548160ff02191690831515021790555080600d60008481526020019081526020016000206001018190555033600d600084815260200190815260200160002060020160006101000a81548173ffffffffffffffffffffffffffffffffffffffff021916908373ffffffffffffffffffffffffffffffffffffffff1602179055506115243330846122b5565b600e60003373ffffffffffffffffffffffffffffffffffffffff1673ffffffffffffffffffffffffffffffffffffffff168152602001908152602001600020829080600181540180825580915050600190039060005260206000200160009091909190915055600f8290806001815401808255809150506001900390600052602060002001600090919091909150553373ffffffffffffffffffffffffffffffffffffffff16827f5f9c03de076f5063cd3ebcfe8ef7aa8af378e4b35a83c77ba9777e97083879a2836040516115fa9190613b92565b60405180910390a35050565b6060600180546116159061425c565b80601f01602080910402602001604051908101604052809291908181526020018280546116419061425c565b801561168e5780601f106116635761010080835404028352916020019161168e565b820191906000526020600020905b81548152906001019060200180831161167157829003601f168201915b5050505050905090565b6116aa6116a361215f565b838361272f565b5050565b600f81815481106116be57600080fd5b906000526020600020016000915090505481565b6116e36116dd61215f565b83612220565b611722576040517f08c379a000000000000000000000000000000000000000000000000000000000815260040161171990614423565b60405180910390fd5b61172e8484848461289b565b50505050565b606061173f826128f7565b9050919050565b60006117526010612a09565b905061175e601061209d565b6117688382612a17565b6117728183612a35565b505050565b60606000611784836110d2565b905060008167ffffffffffffffff8111156117a2576117a1613f42565b5b6040519080825280602002602001820160405280156117d05781602001602082028036833780820191505090505b50905060005b8281101561181a576117e88582610a49565b8282815181106117fb576117fa6145ad565b5b60200260200101818152505080806118129061466e565b9150506117d6565b508092505050919050565b6000600560008473ffffffffffffffffffffffffffffffffffffffff1673ffffffffffffffffffffffffffffffffffffffff16815260200190815260200160002060008373ffffffffffffffffffffffffffffffffffffffff1673ffffffffffffffffffffffffffffffffffffffff16815260200190815260200160002060009054906101000a900460ff16905092915050565b600d600082815260200190815260200160002060000160009054906101000a900460ff1661191c576040517f08c379a000000000000000000000000000000000000000000000000000000000815260040161191390614521565b60405180910390fd5b6000600d60008381526020019081526020016000206001015490508034101561197a576040517f08c379a000000000000000000000000000000000000000000000000000000000815260040161197190614990565b60405180910390fd5b6000600d600084815260200190815260200160002060020160009054906101000a900473ffffffffffffffffffffffffffffffffffffffff16905060003390506119c53082866122b5565b8173ffffffffffffffffffffffffffffffffffffffff166108fc349081150290604051600060405180830381858888f19350505050158015611a0b573d6000803e3d6000fd5b506000600d600086815260200190815260200160002060000160006101000a81548160ff021916908315150217905550600d60008581526020019081526020016000206003016040518060a001604052808681526020018473ffffffffffffffffffffffffffffffffffffffff1681526020018373ffffffffffffffffffffffffffffffffffffffff1681526020018581526020014281525090806001815401808255809150506001900390600052602060002090600502016000909190919091506000820151816000015560208201518160010160006101000a81548173ffffffffffffffffffffffffffffffffffffffff021916908373ffffffffffffffffffffffffffffffffffffffff16021790555060408201518160020160006101000a81548173ffffffffffffffffffffffffffffffffffffffff021916908373ffffffffffffffffffffffffffffffffffffffff1602179055506060820151816003015560808201518160040155505060005b600e60008473ffffffffffffffffffffffffffffffffffffffff1673ffffffffffffffffffffffffffffffffffffffff16815260200190815260200160002080549050811015611d735784600e60008573ffffffffffffffffffffffffffffffffffffffff1673ffffffffffffffffffffffffffffffffffffffff1681526020019081526020016000208281548110611c1a57611c196145ad565b5b906000526020600020015403611d6057600f6001600e60008673ffffffffffffffffffffffffffffffffffffffff1673ffffffffffffffffffffffffffffffffffffffff16815260200190815260200160002080549050611c7b919061460b565b81548110611c8c57611c8b6145ad565b5b9060005260206000200154600e60008573ffffffffffffffffffffffffffffffffffffffff1673ffffffffffffffffffffffffffffffffffffffff1681526020019081526020016000208281548110611ce857611ce76145ad565b5b9060005260206000200181905550600e60008473ffffffffffffffffffffffffffffffffffffffff1673ffffffffffffffffffffffffffffffffffffffff168152602001908152602001600020805480611d4557611d4461463f565b5b60019003818190600052602060002001600090559055611d73565b8080611d6b9061466e565b915050611b7e565b5080600d600086815260200190815260200160002060020160006101000a81548173ffffffffffffffffffffffffffffffffffffffff021916908373ffffffffffffffffffffffffffffffffffffffff16021790555060005b600f80549050811015611e905784600f8281548110611dee57611ded6145ad565b5b906000526020600020015403611e7d57600f6001600f80549050611e12919061460b565b81548110611e2357611e226145ad565b5b9060005260206000200154600f8281548110611e4257611e416145ad565b5b9060005260206000200181905550600f805480611e6257611e6161463f565b5b60019003818190600052602060002001600090559055611e90565b8080611e889061466e565b915050611dcc565b5080600d600086815260200190815260200160002060020160006101000a81548173ffffffffffffffffffffffffffffffffffffffff021916908373ffffffffffffffffffffffffffffffffffffffff1602179055508173ffffffffffffffffffffffffffffffffffffffff168173ffffffffffffffffffffffffffffffffffffffff16857fc55254892a1711b67c27fcc61c33145acd745d88047198774c9f479bd2fab72e86604051611f449190613b92565b60405180910390a450505050565b600e6020528160005260406000208181548110611f6e57600080fd5b90600052602060002001600091509150505481565b611f8b6125eb565b600073ffffffffffffffffffffffffffffffffffffffff168173ffffffffffffffffffffffffffffffffffffffff1603611ffa576040517f08c379a0000000000000000000000000000000000000000000000000000000008152600401611ff190614a22565b60405180910390fd5b61200381612669565b50565b6060600e60008373ffffffffffffffffffffffffffffffffffffffff1673ffffffffffffffffffffffffffffffffffffffff16815260200190815260200160002080548060200260200160405190810160405280929190818152602001828054801561209157602002820191906000526020600020905b81548152602001906001019080831161207d575b50505050509050919050565b6001816000016000828254019250508190555050565b6000634906490660e01b7bffffffffffffffffffffffffffffffffffffffffffffffffffffffff1916827bffffffffffffffffffffffffffffffffffffffffffffffffffffffff1916148061210d575061210c82612ae0565b5b9050919050565b61211d81612b5a565b61215c576040517f08c379a000000000000000000000000000000000000000000000000000000000815260040161215390614794565b60405180910390fd5b50565b600033905090565b816004600083815260200190815260200160002060006101000a81548173ffffffffffffffffffffffffffffffffffffffff021916908373ffffffffffffffffffffffffffffffffffffffff160217905550808273ffffffffffffffffffffffffffffffffffffffff166121da8361104c565b73ffffffffffffffffffffffffffffffffffffffff167f8c5be1e5ebec7d5bd14f71427d1e84f3dd0314c0f7b2291e5b200ac8c7c3b92560405160405180910390a45050565b60008061222c8361104c565b90508073ffffffffffffffffffffffffffffffffffffffff168473ffffffffffffffffffffffffffffffffffffffff16148061226e575061226d8185611825565b5b806122ac57508373ffffffffffffffffffffffffffffffffffffffff166122948461087f565b73ffffffffffffffffffffffffffffffffffffffff16145b91505092915050565b8273ffffffffffffffffffffffffffffffffffffffff166122d58261104c565b73ffffffffffffffffffffffffffffffffffffffff161461232b576040517f08c379a000000000000000000000000000000000000000000000000000000000815260040161232290614ab4565b60405180910390fd5b600073ffffffffffffffffffffffffffffffffffffffff168273ffffffffffffffffffffffffffffffffffffffff160361239a576040517f08c379a000000000000000000000000000000000000000000000000000000000815260040161239190614b46565b60405180910390fd5b6123a78383836001612b9b565b8273ffffffffffffffffffffffffffffffffffffffff166123c78261104c565b73ffffffffffffffffffffffffffffffffffffffff161461241d576040517f08c379a000000000000000000000000000000000000000000000000000000000815260040161241490614ab4565b60405180910390fd5b6004600082815260200190815260200160002060006101000a81549073ffffffffffffffffffffffffffffffffffffffff02191690556001600360008573ffffffffffffffffffffffffffffffffffffffff1673ffffffffffffffffffffffffffffffffffffffff168152602001908152602001600020600082825403925050819055506001600360008473ffffffffffffffffffffffffffffffffffffffff1673ffffffffffffffffffffffffffffffffffffffff16815260200190815260200160002060008282540192505081905550816002600083815260200190815260200160002060006101000a81548173ffffffffffffffffffffffffffffffffffffffff021916908373ffffffffffffffffffffffffffffffffffffffff160217905550808273ffffffffffffffffffffffffffffffffffffffff168473ffffffffffffffffffffffffffffffffffffffff167fddf252ad1be2c89b69c2b068fc378daa952ba7f163c4a11628f55a4df523b3ef60405160405180910390a46125a98383836001612bad565b505050565b60006002600083815260200190815260200160002060009054906101000a900473ffffffffffffffffffffffffffffffffffffffff169050919050565b6125f361215f565b73ffffffffffffffffffffffffffffffffffffffff16612611611333565b73ffffffffffffffffffffffffffffffffffffffff1614612667576040517f08c379a000000000000000000000000000000000000000000000000000000000815260040161265e90614bb2565b60405180910390fd5b565b6000600b60009054906101000a900473ffffffffffffffffffffffffffffffffffffffff16905081600b60006101000a81548173ffffffffffffffffffffffffffffffffffffffff021916908373ffffffffffffffffffffffffffffffffffffffff1602179055508173ffffffffffffffffffffffffffffffffffffffff168173ffffffffffffffffffffffffffffffffffffffff167f8be0079c531659141344cd1fd0a4f28419497f9722a3daafe3b4186f6b6457e060405160405180910390a35050565b8173ffffffffffffffffffffffffffffffffffffffff168373ffffffffffffffffffffffffffffffffffffffff160361279d576040517f08c379a000000000000000000000000000000000000000000000000000000000815260040161279490614c1e565b60405180910390fd5b80600560008573ffffffffffffffffffffffffffffffffffffffff1673ffffffffffffffffffffffffffffffffffffffff16815260200190815260200160002060008473ffffffffffffffffffffffffffffffffffffffff1673ffffffffffffffffffffffffffffffffffffffff16815260200190815260200160002060006101000a81548160ff0219169083151502179055508173ffffffffffffffffffffffffffffffffffffffff168373ffffffffffffffffffffffffffffffffffffffff167f17307eab39ab6107e8899845ad3d59bd9653f200f220920489ca2b5937696c318360405161288e9190613982565b60405180910390a3505050565b6128a68484846122b5565b6128b284848484612bb3565b6128f1576040517f08c379a00000000000000000000000000000000000000000000000000000000081526004016128e890614cb0565b60405180910390fd5b50505050565b606061290282612114565b6000600a600084815260200190815260200160002080546129229061425c565b80601f016020809104026020016040519081016040528092919081815260200182805461294e9061425c565b801561299b5780601f106129705761010080835404028352916020019161299b565b820191906000526020600020905b81548152906001019060200180831161297e57829003601f168201915b5050505050905060006129ac612d3a565b905060008151036129c1578192505050612a04565b6000825111156129f65780826040516020016129de929190614d0c565b60405160208183030381529060405292505050612a04565b6129ff84612d51565b925050505b919050565b600081600001549050919050565b612a31828260405180602001604052806000815250612db9565b5050565b612a3e82612b5a565b612a7d576040517f08c379a0000000000000000000000000000000000000000000000000000000008152600401612a7490614da2565b60405180910390fd5b80600a60008481526020019081526020016000209080519060200190612aa492919061382b565b507ff8e1a15aba9398e019f0b49df1a4fde98ee17ae345cb5f6b5e2c27f5033e8ce782604051612ad49190613b92565b60405180910390a15050565b60007f780e9d63000000000000000000000000000000000000000000000000000000007bffffffffffffffffffffffffffffffffffffffffffffffffffffffff1916827bffffffffffffffffffffffffffffffffffffffffffffffffffffffff19161480612b535750612b5282612e14565b5b9050919050565b60008073ffffffffffffffffffffffffffffffffffffffff16612b7c836125ae565b73ffffffffffffffffffffffffffffffffffffffff1614159050919050565b612ba784848484612ef6565b50505050565b50505050565b6000612bd48473ffffffffffffffffffffffffffffffffffffffff16613054565b15612d2d578373ffffffffffffffffffffffffffffffffffffffff1663150b7a02612bfd61215f565b8786866040518563ffffffff1660e01b8152600401612c1f9493929190614e17565b6020604051808303816000875af1925050508015612c5b57506040513d601f19601f82011682018060405250810190612c589190614e78565b60015b612cdd573d8060008114612c8b576040519150601f19603f3d011682016040523d82523d6000602084013e612c90565b606091505b506000815103612cd5576040517f08c379a0000000000000000000000000000000000000000000000000000000008152600401612ccc90614cb0565b60405180910390fd5b805181602001fd5b63150b7a0260e01b7bffffffffffffffffffffffffffffffffffffffffffffffffffffffff1916817bffffffffffffffffffffffffffffffffffffffffffffffffffffffff191614915050612d32565b600190505b949350505050565b606060405180602001604052806000815250905090565b6060612d5c82612114565b6000612d66612d3a565b90506000815111612d865760405180602001604052806000815250612db1565b80612d9084613077565b604051602001612da1929190614d0c565b6040516020818303038152906040525b915050919050565b612dc38383613145565b612dd06000848484612bb3565b612e0f576040517f08c379a0000000000000000000000000000000000000000000000000000000008152600401612e0690614cb0565b60405180910390fd5b505050565b60007f80ac58cd000000000000000000000000000000000000000000000000000000007bffffffffffffffffffffffffffffffffffffffffffffffffffffffff1916827bffffffffffffffffffffffffffffffffffffffffffffffffffffffff19161480612edf57507f5b5e139f000000000000000000000000000000000000000000000000000000007bffffffffffffffffffffffffffffffffffffffffffffffffffffffff1916827bffffffffffffffffffffffffffffffffffffffffffffffffffffffff1916145b80612eef5750612eee82613362565b5b9050919050565b612f02848484846133cc565b6001811115612f46576040517f08c379a0000000000000000000000000000000000000000000000000000000008152600401612f3d90614f17565b60405180910390fd5b6000829050600073ffffffffffffffffffffffffffffffffffffffff168573ffffffffffffffffffffffffffffffffffffffff1603612f8d57612f88816133d2565b612fcc565b8373ffffffffffffffffffffffffffffffffffffffff168573ffffffffffffffffffffffffffffffffffffffff1614612fcb57612fca858261341b565b5b5b600073ffffffffffffffffffffffffffffffffffffffff168473ffffffffffffffffffffffffffffffffffffffff160361300e5761300981613588565b61304d565b8473ffffffffffffffffffffffffffffffffffffffff168473ffffffffffffffffffffffffffffffffffffffff161461304c5761304b8482613659565b5b5b5050505050565b6000808273ffffffffffffffffffffffffffffffffffffffff163b119050919050565b606060006001613086846136d8565b01905060008167ffffffffffffffff8111156130a5576130a4613f42565b5b6040519080825280601f01601f1916602001820160405280156130d75781602001600182028036833780820191505090505b509050600082602001820190505b60011561313a578080600190039150507f3031323334353637383961626364656600000000000000000000000000000000600a86061a8153600a858161312e5761312d614f37565b5b049450600085036130e5575b819350505050919050565b600073ffffffffffffffffffffffffffffffffffffffff168273ffffffffffffffffffffffffffffffffffffffff16036131b4576040517f08c379a00000000000000000000000000000000000000000000000000000000081526004016131ab90614fb2565b60405180910390fd5b6131bd81612b5a565b156131fd576040517f08c379a00000000000000000000000000000000000000000000000000000000081526004016131f49061501e565b60405180910390fd5b61320b600083836001612b9b565b61321481612b5a565b15613254576040517f08c379a000000000000000000000000000000000000000000000000000000000815260040161324b9061501e565b60405180910390fd5b6001600360008473ffffffffffffffffffffffffffffffffffffffff1673ffffffffffffffffffffffffffffffffffffffff16815260200190815260200160002060008282540192505081905550816002600083815260200190815260200160002060006101000a81548173ffffffffffffffffffffffffffffffffffffffff021916908373ffffffffffffffffffffffffffffffffffffffff160217905550808273ffffffffffffffffffffffffffffffffffffffff16600073ffffffffffffffffffffffffffffffffffffffff167fddf252ad1be2c89b69c2b068fc378daa952ba7f163c4a11628f55a4df523b3ef60405160405180910390a461335e600083836001612bad565b5050565b60007f01ffc9a7000000000000000000000000000000000000000000000000000000007bffffffffffffffffffffffffffffffffffffffffffffffffffffffff1916827bffffffffffffffffffffffffffffffffffffffffffffffffffffffff1916149050919050565b50505050565b6008805490506009600083815260200190815260200160002081905550600881908060018154018082558091505060019003906000526020600020016000909190919091505550565b60006001613428846110d2565b613432919061460b565b9050600060076000848152602001908152602001600020549050818114613517576000600660008673ffffffffffffffffffffffffffffffffffffffff1673ffffffffffffffffffffffffffffffffffffffff168152602001908152602001600020600084815260200190815260200160002054905080600660008773ffffffffffffffffffffffffffffffffffffffff1673ffffffffffffffffffffffffffffffffffffffff168152602001908152602001600020600084815260200190815260200160002081905550816007600083815260200190815260200160002081905550505b6007600084815260200190815260200160002060009055600660008573ffffffffffffffffffffffffffffffffffffffff1673ffffffffffffffffffffffffffffffffffffffff16815260200190815260200160002060008381526020019081526020016000206000905550505050565b6000600160088054905061359c919061460b565b90506000600960008481526020019081526020016000205490506000600883815481106135cc576135cb6145ad565b5b9060005260206000200154905080600883815481106135ee576135ed6145ad565b5b90600052602060002001819055508160096000838152602001908152602001600020819055506009600085815260200190815260200160002060009055600880548061363d5761363c61463f565b5b6001900381819060005260206000200160009055905550505050565b6000613664836110d2565b905081600660008573ffffffffffffffffffffffffffffffffffffffff1673ffffffffffffffffffffffffffffffffffffffff168152602001908152602001600020600083815260200190815260200160002081905550806007600084815260200190815260200160002081905550505050565b600080600090507a184f03e93ff9f4daa797ed6e38ed64bf6a1f0100000000000000008310613736577a184f03e93ff9f4daa797ed6e38ed64bf6a1f010000000000000000838161372c5761372b614f37565b5b0492506040810190505b6d04ee2d6d415b85acef81000000008310613773576d04ee2d6d415b85acef8100000000838161376957613768614f37565b5b0492506020810190505b662386f26fc1000083106137a257662386f26fc10000838161379857613797614f37565b5b0492506010810190505b6305f5e10083106137cb576305f5e10083816137c1576137c0614f37565b5b0492506008810190505b61271083106137f05761271083816137e6576137e5614f37565b5b0492506004810190505b60648310613813576064838161380957613808614f37565b5b0492506002810190505b600a8310613822576001810190505b80915050919050565b8280546138379061425c565b90600052602060002090601f01602090048101928261385957600085556138a0565b82601f1061387257805160ff19168380011785556138a0565b828001600101855582156138a0579182015b8281111561389f578251825591602001919060010190613884565b5b5090506138ad91906138b1565b5090565b5b808211156138ca5760008160009055506001016138b2565b5090565b6000604051905090565b600080fd5b600080fd5b60007fffffffff0000000000000000000000000000000000000000000000000000000082169050919050565b613917816138e2565b811461392257600080fd5b50565b6000813590506139348161390e565b92915050565b6000602082840312156139505761394f6138d8565b5b600061395e84828501613925565b91505092915050565b60008115159050919050565b61397c81613967565b82525050565b60006020820190506139976000830184613973565b92915050565b600081519050919050565b600082825260208201905092915050565b60005b838110156139d75780820151818401526020810190506139bc565b838111156139e6576000848401525b50505050565b6000601f19601f8301169050919050565b6000613a088261399d565b613a1281856139a8565b9350613a228185602086016139b9565b613a2b816139ec565b840191505092915050565b60006020820190508181036000830152613a5081846139fd565b905092915050565b6000819050919050565b613a6b81613a58565b8114613a7657600080fd5b50565b600081359050613a8881613a62565b92915050565b600060208284031215613aa457613aa36138d8565b5b6000613ab284828501613a79565b91505092915050565b600073ffffffffffffffffffffffffffffffffffffffff82169050919050565b6000613ae682613abb565b9050919050565b613af681613adb565b82525050565b6000602082019050613b116000830184613aed565b92915050565b613b2081613adb565b8114613b2b57600080fd5b50565b600081359050613b3d81613b17565b92915050565b60008060408385031215613b5a57613b596138d8565b5b6000613b6885828601613b2e565b9250506020613b7985828601613a79565b9150509250929050565b613b8c81613a58565b82525050565b6000602082019050613ba76000830184613b83565b92915050565b600080600060608486031215613bc657613bc56138d8565b5b6000613bd486828701613b2e565b9350506020613be586828701613b2e565b9250506040613bf686828701613a79565b9150509250925092565b600081519050919050565b600082825260208201905092915050565b6000819050602082019050919050565b613c3581613a58565b82525050565b6000613c478383613c2c565b60208301905092915050565b6000602082019050919050565b6000613c6b82613c00565b613c758185613c0b565b9350613c8083613c1c565b8060005b83811015613cb1578151613c988882613c3b565b9750613ca383613c53565b925050600181019050613c84565b5085935050505092915050565b60006020820190508181036000830152613cd88184613c60565b905092915050565b600060208284031215613cf657613cf56138d8565b5b6000613d0484828501613b2e565b91505092915050565b6000606082019050613d226000830186613973565b613d2f6020830185613b83565b613d3c6040830184613aed565b949350505050565b600081519050919050565b600082825260208201905092915050565b6000819050602082019050919050565b613d7981613adb565b82525050565b60a082016000820151613d956000850182613c2c565b506020820151613da86020850182613d70565b506040820151613dbb6040850182613d70565b506060820151613dce6060850182613c2c565b506080820151613de16080850182613c2c565b50505050565b6000613df38383613d7f565b60a08301905092915050565b6000602082019050919050565b6000613e1782613d44565b613e218185613d4f565b9350613e2c83613d60565b8060005b83811015613e5d578151613e448882613de7565b9750613e4f83613dff565b925050600181019050613e30565b5085935050505092915050565b60006020820190508181036000830152613e848184613e0c565b905092915050565b60008060408385031215613ea357613ea26138d8565b5b6000613eb185828601613a79565b9250506020613ec285828601613a79565b9150509250929050565b613ed581613967565b8114613ee057600080fd5b50565b600081359050613ef281613ecc565b92915050565b60008060408385031215613f0f57613f0e6138d8565b5b6000613f1d85828601613b2e565b9250506020613f2e85828601613ee3565b9150509250929050565b600080fd5b600080fd5b7f4e487b7100000000000000000000000000000000000000000000000000000000600052604160045260246000fd5b613f7a826139ec565b810181811067ffffffffffffffff82111715613f9957613f98613f42565b5b80604052505050565b6000613fac6138ce565b9050613fb88282613f71565b919050565b600067ffffffffffffffff821115613fd857613fd7613f42565b5b613fe1826139ec565b9050602081019050919050565b82818337600083830152505050565b600061401061400b84613fbd565b613fa2565b90508281526020810184848401111561402c5761402b613f3d565b5b614037848285613fee565b509392505050565b600082601f83011261405457614053613f38565b5b8135614064848260208601613ffd565b91505092915050565b60008060008060808587031215614087576140866138d8565b5b600061409587828801613b2e565b94505060206140a687828801613b2e565b93505060406140b787828801613a79565b925050606085013567ffffffffffffffff8111156140d8576140d76138dd565b5b6140e48782880161403f565b91505092959194509250565b600067ffffffffffffffff82111561410b5761410a613f42565b5b614114826139ec565b9050602081019050919050565b600061413461412f846140f0565b613fa2565b9050828152602081018484840111156141505761414f613f3d565b5b61415b848285613fee565b509392505050565b600082601f83011261417857614177613f38565b5b8135614188848260208601614121565b91505092915050565b600080604083850312156141a8576141a76138d8565b5b60006141b685828601613b2e565b925050602083013567ffffffffffffffff8111156141d7576141d66138dd565b5b6141e385828601614163565b9150509250929050565b60008060408385031215614204576142036138d8565b5b600061421285828601613b2e565b925050602061422385828601613b2e565b9150509250929050565b7f4e487b7100000000000000000000000000000000000000000000000000000000600052602260045260246000fd5b6000600282049050600182168061427457607f821691505b6020821081036142875761428661422d565b5b50919050565b7f4552433732313a20617070726f76616c20746f2063757272656e74206f776e6560008201527f7200000000000000000000000000000000000000000000000000000000000000602082015250565b60006142e96021836139a8565b91506142f48261428d565b604082019050919050565b60006020820190508181036000830152614318816142dc565b9050919050565b7f4552433732313a20617070726f76652063616c6c6572206973206e6f7420746f60008201527f6b656e206f776e6572206f7220617070726f76656420666f7220616c6c000000602082015250565b600061437b603d836139a8565b91506143868261431f565b604082019050919050565b600060208201905081810360008301526143aa8161436e565b9050919050565b7f4552433732313a2063616c6c6572206973206e6f7420746f6b656e206f776e6560008201527f72206f7220617070726f76656400000000000000000000000000000000000000602082015250565b600061440d602d836139a8565b9150614418826143b1565b604082019050919050565b6000602082019050818103600083015261443c81614400565b9050919050565b7f455243373231456e756d657261626c653a206f776e657220696e646578206f7560008201527f74206f6620626f756e6473000000000000000000000000000000000000000000602082015250565b600061449f602b836139a8565b91506144aa82614443565b604082019050919050565b600060208201905081810360008301526144ce81614492565b9050919050565b7f4e4654566f6775653a204e4654206e6f74206c69737465640000000000000000600082015250565b600061450b6018836139a8565b9150614516826144d5565b602082019050919050565b6000602082019050818103600083015261453a816144fe565b9050919050565b7f4e4654566f6775653a204e6f7420746865206f776e6572000000000000000000600082015250565b60006145776017836139a8565b915061458282614541565b602082019050919050565b600060208201905081810360008301526145a68161456a565b9050919050565b7f4e487b7100000000000000000000000000000000000000000000000000000000600052603260045260246000fd5b7f4e487b7100000000000000000000000000000000000000000000000000000000600052601160045260246000fd5b600061461682613a58565b915061462183613a58565b925082821015614634576146336145dc565b5b828203905092915050565b7f4e487b7100000000000000000000000000000000000000000000000000000000600052603160045260246000fd5b600061467982613a58565b91507fffffffffffffffffffffffffffffffffffffffffffffffffffffffffffffffff82036146ab576146aa6145dc565b5b600182019050919050565b7f455243373231456e756d657261626c653a20676c6f62616c20696e646578206f60008201527f7574206f6620626f756e64730000000000000000000000000000000000000000602082015250565b6000614712602c836139a8565b915061471d826146b6565b604082019050919050565b6000602082019050818103600083015261474181614705565b9050919050565b7f4552433732313a20696e76616c696420746f6b656e2049440000000000000000600082015250565b600061477e6018836139a8565b915061478982614748565b602082019050919050565b600060208201905081810360008301526147ad81614771565b9050919050565b7f4552433732313a2061646472657373207a65726f206973206e6f74206120766160008201527f6c6964206f776e65720000000000000000000000000000000000000000000000602082015250565b60006148106029836139a8565b915061481b826147b4565b604082019050919050565b6000602082019050818103600083015261483f81614803565b9050919050565b7f4e4654566f6775653a204e465420616c7265616479206c697374656400000000600082015250565b600061487c601c836139a8565b915061488782614846565b602082019050919050565b600060208201905081810360008301526148ab8161486f565b9050919050565b7f4e4654566f6775653a205072696365206d75737420626520677265617465722060008201527f7468616e207a65726f0000000000000000000000000000000000000000000000602082015250565b600061490e6029836139a8565b9150614919826148b2565b604082019050919050565b6000602082019050818103600083015261493d81614901565b9050919050565b7f4e4654566f6775653a20496e73756666696369656e742066756e647300000000600082015250565b600061497a601c836139a8565b915061498582614944565b602082019050919050565b600060208201905081810360008301526149a98161496d565b9050919050565b7f4f776e61626c653a206e6577206f776e657220697320746865207a65726f206160008201527f6464726573730000000000000000000000000000000000000000000000000000602082015250565b6000614a0c6026836139a8565b9150614a17826149b0565b604082019050919050565b60006020820190508181036000830152614a3b816149ff565b9050919050565b7f4552433732313a207472616e736665722066726f6d20696e636f72726563742060008201527f6f776e6572000000000000000000000000000000000000000000000000000000602082015250565b6000614a9e6025836139a8565b9150614aa982614a42565b604082019050919050565b60006020820190508181036000830152614acd81614a91565b9050919050565b7f4552433732313a207472616e7366657220746f20746865207a65726f2061646460008201527f7265737300000000000000000000000000000000000000000000000000000000602082015250565b6000614b306024836139a8565b9150614b3b82614ad4565b604082019050919050565b60006020820190508181036000830152614b5f81614b23565b9050919050565b7f4f776e61626c653a2063616c6c6572206973206e6f7420746865206f776e6572600082015250565b6000614b9c6020836139a8565b9150614ba782614b66565b602082019050919050565b60006020820190508181036000830152614bcb81614b8f565b9050919050565b7f4552433732313a20617070726f766520746f2063616c6c657200000000000000600082015250565b6000614c086019836139a8565b9150614c1382614bd2565b602082019050919050565b60006020820190508181036000830152614c3781614bfb565b9050919050565b7f4552433732313a207472616e7366657220746f206e6f6e20455243373231526560008201527f63656976657220696d706c656d656e7465720000000000000000000000000000602082015250565b6000614c9a6032836139a8565b9150614ca582614c3e565b604082019050919050565b60006020820190508181036000830152614cc981614c8d565b9050919050565b600081905092915050565b6000614ce68261399d565b614cf08185614cd0565b9350614d008185602086016139b9565b80840191505092915050565b6000614d188285614cdb565b9150614d248284614cdb565b91508190509392505050565b7f45524337323155524953746f726167653a2055524920736574206f66206e6f6e60008201527f6578697374656e7420746f6b656e000000000000000000000000000000000000602082015250565b6000614d8c602e836139a8565b9150614d9782614d30565b604082019050919050565b60006020820190508181036000830152614dbb81614d7f565b9050919050565b600081519050919050565b600082825260208201905092915050565b6000614de982614dc2565b614df38185614dcd565b9350614e038185602086016139b9565b614e0c816139ec565b840191505092915050565b6000608082019050614e2c6000830187613aed565b614e396020830186613aed565b614e466040830185613b83565b8181036060830152614e588184614dde565b905095945050505050565b600081519050614e728161390e565b92915050565b600060208284031215614e8e57614e8d6138d8565b5b6000614e9c84828501614e63565b91505092915050565b7f455243373231456e756d657261626c653a20636f6e736563757469766520747260008201527f616e7366657273206e6f7420737570706f727465640000000000000000000000602082015250565b6000614f016035836139a8565b9150614f0c82614ea5565b604082019050919050565b60006020820190508181036000830152614f3081614ef4565b9050919050565b7f4e487b7100000000000000000000000000000000000000000000000000000000600052601260045260246000fd5b7f4552433732313a206d696e7420746f20746865207a65726f2061646472657373600082015250565b6000614f9c6020836139a8565b9150614fa782614f66565b602082019050919050565b60006020820190508181036000830152614fcb81614f8f565b9050919050565b7f4552433732313a20746f6b656e20616c7265616479206d696e74656400000000600082015250565b6000615008601c836139a8565b915061501382614fd2565b602082019050919050565b6000602082019050818103600083015261503781614ffb565b905091905056fea2646970667358221220e9304658c44fcd3f2fbfc0094afdc346c6b9533b22dbdd1ec82c0faf7e63126e64736f6c634300080d0033",
  "immutableReferences": {},
  "source": "// SPDX-License-Identifier: MIT\npragma solidity ^0.8.13;\n\nimport \"@openzeppelin/contracts/token/ERC721/extensions/ERC721Enumerable.sol\";\nimport \"@openzeppelin/contracts/token/ERC721/extensions/ERC721URIStorage.sol\";\nimport \"@openzeppelin/contracts/access/Ownable.sol\";\nimport \"@openzeppelin/contracts/utils/Counters.sol\";\n\ncontract NFTVogue is ERC721, ERC721Enumerable, ERC721URIStorage, Ownable {\n    // Struct to store the details of an NFT listing\n    struct NFTListingDetail {\n        bool isListed;\n        uint256 price;\n        address lastOwner;\n        SaleDetail[] salesHistory;\n    }\n\n    // Struct to store the details of an NFT sale\n    struct SaleDetail {\n        uint256 tokenId;\n        address seller;\n        address buyer;\n        uint256 price;\n        uint256 timestamp;\n    }\n\n    // The owner of the contract\n    address public marketOwner;\n\n    // Mapping from NFT token ID to the price of the NFT\n    mapping(uint256 => NFTListingDetail) public nftDetails;\n\n    mapping(address => uint256[]) public nftsListedByUser;\n\n    // NFTs listed for sale\n    uint256[] public nftsListedInMarket;\n\n    // Event emitted when an NFT is listed for sale\n    event NFTListed(\n        uint256 indexed tokenId,\n        address indexed seller,\n        uint256 price\n    );\n\n    // Event emitted when an NFT is bought\n    event NFTBought(\n        uint256 indexed tokenId,\n        address indexed buyer,\n        address indexed seller,\n        uint256 price\n    );\n\n    // Event emitted when a listing is cancelled\n    event NFTListingCancelled(uint256 indexed tokenId, address indexed seller);\n\n    using Counters for Counters.Counter;\n\n    Counters.Counter private _tokenIdCounter;\n\n    constructor() ERC721(\"NFT Vogue\", \"NFTV\") {\n        _tokenIdCounter.increment(); // Start tokenIds from 1\n    }\n\n    // Function to mint an NFT\n    function safeMint(address to, string memory uri) external {\n        uint256 tokenId = _tokenIdCounter.current();\n        _tokenIdCounter.increment();\n        _safeMint(to, tokenId);\n        _setTokenURI(tokenId, uri);\n    }\n\n    // Function to list an NFT for sale\n    function listNFT(uint256 tokenId, uint256 price) external {\n        // Check if the NFT is already listed\n        require(!nftDetails[tokenId].isListed, \"NFTVogue: NFT already listed\");\n\n        // Check if the user is the owner of the NFT\n        require(ownerOf(tokenId) == msg.sender, \"NFTVogue: Not the owner\");\n\n        // Check if the price is greater than zero\n        require(price > 0, \"NFTVogue: Price must be greater than zero\");\n\n        // Set the listing status to \"listed\"\n        nftDetails[tokenId].isListed = true;\n\n        // Set the price of the NFT\n        nftDetails[tokenId].price = price;\n\n        // Set the last owner of the NFT\n        nftDetails[tokenId].lastOwner = msg.sender;\n\n        // Approve the contract to transfer the NFT\n        _transfer(msg.sender, address(this), tokenId);\n\n        // Add the NFT to the list of NFTs listed by the user\n        nftsListedByUser[msg.sender].push(tokenId);\n\n        // Add the NFT to the list of NFTs listed for sale\n        nftsListedInMarket.push(tokenId);\n\n        // Emit an event\n        emit NFTListed(tokenId, msg.sender, price);\n    }\n\n    // Function to buy an NFT\n    function purchase(uint256 tokenId) external payable {\n        // Check if the listing status is \"listed\"\n        require(nftDetails[tokenId].isListed, \"NFTVogue: NFT not listed\");\n\n        uint256 price = nftDetails[tokenId].price;\n\n        // Check if the user has enough linea to pay for the NFT\n        require(msg.value >= price, \"NFTVogue: Insufficient funds\");\n\n        address seller = nftDetails[tokenId].lastOwner;\n        address buyer = msg.sender;\n\n        // Transfer the NFT to the buyer\n        _transfer(address(this), buyer, tokenId);\n\n        // Pay the seller\n        payable(seller).transfer(msg.value);\n\n        // Set the listing status false\n        nftDetails[tokenId].isListed = false;\n\n        // Add the sale details to the sales history\n        nftDetails[tokenId].salesHistory.push(\n            SaleDetail(tokenId, seller, buyer, price, block.timestamp)\n        );\n\n        // Remove the NFT from the list of NFTs listed for sale\n        for (uint256 i = 0; i < nftsListedByUser[seller].length; i++) {\n            if (nftsListedByUser[seller][i] == tokenId) {\n                nftsListedByUser[seller][i] = nftsListedInMarket[\n                    nftsListedByUser[seller].length - 1\n                ];\n                nftsListedByUser[seller].pop();\n                break;\n            }\n        }\n\n        // Change the last owner of the NFT\n        nftDetails[tokenId].lastOwner = buyer;\n\n        // Remove the NFT from the list of NFTs listed for sale\n        // TODO: Optimize this\n        for (uint256 i = 0; i < nftsListedInMarket.length; i++) {\n            if (nftsListedInMarket[i] == tokenId) {\n                nftsListedInMarket[i] = nftsListedInMarket[\n                    nftsListedInMarket.length - 1\n                ];\n                nftsListedInMarket.pop();\n                break;\n            }\n        }\n\n        nftDetails[tokenId].lastOwner = buyer;\n        // Emit an event\n        emit NFTBought(tokenId, buyer, seller, price);\n    }\n\n    // Function to cancel a listing\n    function cancelListing(uint256 tokenId) external {\n        address owner = nftDetails[tokenId].lastOwner;\n\n        // Check if the listing status is \"listed\"\n        require(nftDetails[tokenId].isListed, \"NFTVogue: NFT not listed\");\n\n        // Check if the user is the owner of the NFT\n        require(owner == msg.sender, \"NFTVogue: Not the owner\");\n\n        // Set the listing status to \"not listed\"\n        nftDetails[tokenId].isListed = false;\n\n        // Transfer the NFT to the owner\n        _transfer(address(this), owner, tokenId);\n\n        // Remove the NFT from the list of NFTs listed for sale\n        for (uint256 i = 0; i < nftsListedByUser[owner].length; i++) {\n            if (nftsListedByUser[owner][i] == tokenId) {\n                nftsListedByUser[owner][i] = nftsListedInMarket[\n                    nftsListedByUser[owner].length - 1\n                ];\n                nftsListedByUser[owner].pop();\n                break;\n            }\n        }\n\n        // Remove the NFT from the list of NFTs listed for sale\n        // TODO: Optimize this\n        for (uint256 i = 0; i < nftsListedInMarket.length; i++) {\n            if (nftsListedInMarket[i] == tokenId) {\n                nftsListedInMarket[i] = nftsListedInMarket[\n                    nftsListedInMarket.length - 1\n                ];\n                nftsListedInMarket.pop();\n                break;\n            }\n        }\n\n        // Emit an event\n        emit NFTListingCancelled(tokenId, msg.sender);\n    }\n\n    // Function to get token ids of the NFTs owned by a user\n    function getNFTsOfOwner(\n        address owner\n    ) external view returns (uint256[] memory) {\n        uint256 tokenCount = balanceOf(owner);\n\n        uint256[] memory tokenIds = new uint256[](tokenCount);\n\n        for (uint256 i = 0; i < tokenCount; i++) {\n            tokenIds[i] = tokenOfOwnerByIndex(owner, i);\n        }\n\n        return tokenIds;\n    }\n\n    // Function to get the sales history of an NFT\n    function getSalesHistory(\n        uint256 tokenId\n    ) external view returns (SaleDetail[] memory) {\n        return nftDetails[tokenId].salesHistory;\n    }\n\n    // Get NFTs listed for sale\n    function getNFTsListedForSale() external view returns (uint256[] memory) {\n        return nftsListedInMarket;\n    }\n\n    // Get NFTs listed by a user\n    function getNFTsListedByUser(\n        address user\n    ) external view returns (uint256[] memory) {\n        return nftsListedByUser[user];\n    }\n\n    // The following functions are overrides required by Solidity.\n\n    function _beforeTokenTransfer(\n        address from,\n        address to,\n        uint256 tokenId,\n        uint256 batchSize\n    ) internal override(ERC721, ERC721Enumerable) {\n        super._beforeTokenTransfer(from, to, tokenId, batchSize);\n    }\n\n    function _burn(\n        uint256 tokenId\n    ) internal override(ERC721, ERC721URIStorage) {\n        super._burn(tokenId);\n    }\n\n    function tokenURI(\n        uint256 tokenId\n    ) public view override(ERC721, ERC721URIStorage) returns (string memory) {\n        return super.tokenURI(tokenId);\n    }\n\n    function supportsInterface(\n        bytes4 interfaceId\n    ) public view override(ERC721, ERC721Enumerable, ERC721URIStorage) returns (bool) {\n        return super.supportsInterface(interfaceId);\n    }\n}\n",
  "sourcePath": "/Users/user/Documents/aiBuidl/ContractFile/contracts/NFTVogue.sol",
  "compiler": {
    "name": "solc",
    "version": "0.8.13+commit.abaa5c0e.Emscripten.clang"
  },
  "schemaVersion": "3.4.10",
  "updatedAt": "2023-08-20T08:55:22.320Z",
  "networkType": "ethereum",
  "devdoc": {
    "kind": "dev",
    "methods": {
      "approve(address,uint256)": {
        "details": "See {IERC721-approve}."
      },
      "balanceOf(address)": {
        "details": "See {IERC721-balanceOf}."
      },
      "getApproved(uint256)": {
        "details": "See {IERC721-getApproved}."
      },
      "isApprovedForAll(address,address)": {
        "details": "See {IERC721-isApprovedForAll}."
      },
      "name()": {
        "details": "See {IERC721Metadata-name}."
      },
      "owner()": {
        "details": "Returns the address of the current owner."
      },
      "ownerOf(uint256)": {
        "details": "See {IERC721-ownerOf}."
      },
      "renounceOwnership()": {
        "details": "Leaves the contract without owner. It will not be possible to call `onlyOwner` functions. Can only be called by the current owner. NOTE: Renouncing ownership will leave the contract without an owner, thereby disabling any functionality that is only available to the owner."
      },
      "safeTransferFrom(address,address,uint256)": {
        "details": "See {IERC721-safeTransferFrom}."
      },
      "safeTransferFrom(address,address,uint256,bytes)": {
        "details": "See {IERC721-safeTransferFrom}."
      },
      "setApprovalForAll(address,bool)": {
        "details": "See {IERC721-setApprovalForAll}."
      },
      "symbol()": {
        "details": "See {IERC721Metadata-symbol}."
      },
      "tokenByIndex(uint256)": {
        "details": "See {IERC721Enumerable-tokenByIndex}."
      },
      "tokenOfOwnerByIndex(address,uint256)": {
        "details": "See {IERC721Enumerable-tokenOfOwnerByIndex}."
      },
      "totalSupply()": {
        "details": "See {IERC721Enumerable-totalSupply}."
      },
      "transferFrom(address,address,uint256)": {
        "details": "See {IERC721-transferFrom}."
      },
      "transferOwnership(address)": {
        "details": "Transfers ownership of the contract to a new account (`newOwner`). Can only be called by the current owner."
      }
    },
    "version": 1
  },
  "userdoc": {
    "kind": "user",
    "methods": {},
    "version": 1
  }
}